:100000000C943B000C9458000C9458000C9458002D
:100010000C9458000C9458000C9458000C94A204B2
:100020000C9458000C9458000C9458000C945800F0
:100030000C9458000C9458000C9458000C945800E0
:100040000C9458000C9458000C9458000C945800D0
:100050000C9458000C9458000C9458000C945800C0
:100060000C9458000C945800A70128027B02F4025B
:100070006C030504750411241FBECFEFD8E0DEBF6A
:10008000CDBF11E0A0E0B1E0EEE9F9E002C00590DB
:100090000D92AC30B107D9F721E0ACE0B1E001C07E
:1000A0001D92A434B207E1F70E945A000C94CD04CB
:1000B0000C94000080E28093B60080E880BF8FEA55
:1000C0008093640082E08093B0001092B30087E0D8
:1000D0008093B100E6EBF0E0808180FDFDCF82E00F
:1000E0008093700083B7817F866083BF78948FE3AD
:1000F0008AB98FE087B92198A6EBB0E0C0EBD0E0D9
:1001000001E010E020E030E0C12CD12C76016894B1
:10011000C2F80F2EF7E04F2E512C612C712CF02DD0
:100120000F2EFFE73F2EF02D0F2EFFE02F2EF02D8C
:100130000F2EF3E08F2E912CA12CB12CF02D81E00D
:1001400090E04C9141FDFDCF43B7416043BF88959E
:1001500043B74E7F43BF4881488340910C01509183
:100160000D0160910E0170910F01403857406105FB
:100170007105E0F010920C0110920D0110920E0129
:1001800010920F0140910401509105016091060108
:10019000709107014F5F5F4F6F4F7F4F4093040196
:1001A000509305016093060170930701409104018B
:1001B0005091050160910601709107014C33510582
:1001C00061057105E0F01092040110920501109292
:1001D00006011092070140910001509101016091C8
:1001E0000201709103014F5F5F4F6F4F7F4F40934C
:1001F000000150930101609302017093030140914B
:1002000000015091010160910201709103014D3094
:1002100051056105710540F0009300011093010143
:10022000209302013093030140913C0150913D0124
:1002300060913E0170913F014130510561057105AA
:1002400049F410920C0110920D0110920E011092BF
:100250000F016BC0199B59C0409138015091390171
:1002600060913A0170913B0110923801109239016E
:1002700010923A0110923B01199B08C00093400173
:100280001093410120934201309343014091340186
:100290005091350160913601709137014639510511
:1002A00061057105E8F01092340110923501109249
:1002B00036011092370110923801109239011092D4
:1002C0003A0110923B01199B30C0C0924001D0927C
:1002D0004101E0924201F09243011BB818B825C0D9
:1002E0004091340150913501609136017091370190
:1002F0004F5F5F4F6F4F7F4F4093340150933501F5
:10030000609336017093370110C01092380110923B
:10031000390110923A0110923B011092340110926F
:1003200035011092360110923701409140015091F1
:1003300041016091420170914301FA013197E73028
:10034000F10508F0FCC2EC5CFF4F0C94C70440912F
:1003500028015091290160912A0170912B01452BB0
:10036000462B472B09F457C01092280110922901FF
:1003700010922A0110922B014091300150913101CD
:1003800060913201709133014F5F5F4F6F4F7F4F2C
:1003900040933001509331016093320170933301E7
:1003A000FC0102C0EE0FFF1F4A95E2F7EBB9409146
:1003B0003001509131016091320170913301042E6E
:1003C00004C0440F551F661F771F0A94D2F748B91F
:1003D00040913001509131016091320170913301AF
:1003E000473051056105710508F4ABCE109230011C
:1003F00010923101109232011092330142E050E02C
:1004000060E070E0409340015093410160934201ED
:100410007093430196CE409128015091290160913B
:100420002A0170912B014F5F5F4F6F4F7F4F4093B9
:1004300028015093290160932A0170932B010093A6
:10044000400110934101209342013093430179CE42
:10045000409124015091250160912601709127015E
:10046000463951056105710598F0109224011092EA
:10047000250110922601109227018092400190924E
:100480004101A0924201B09243011BB818B859CE65
:10049000409104015091050160910601709107019E
:1004A0004BB940910001509101016091020170919E
:1004B000030148B940912401509125016091260122
:1004C000709127014F5F5F4F6F4F7F4F4093240123
:1004D00050932501609326017093270142E050E07C
:1004E00060E070E04093400150934101609342010D
:1004F0007093430126CE40912001509121016091DB
:10050000220170912301452B462B472B09F44FC044
:1005100010922001109221011092220110922301C9
:10052000409108015091090160910A0170910B01FD
:100530004150510961097109409308015093090123
:1005400060930A0170930B01FC0102C0EE0FFF1FC4
:100550004A95E2F7EBB9AC01E8E0F1E0008002C0B7
:10056000440F551F0A94E2F748B940910801509191
:10057000090160910A0170910B01452B462B472B15
:1005800009F0DFCD409208015092090160920A0102
:1005900070920B014FEF50E060E070E0409340013B
:1005A000509341016093420170934301CACD409141
:1005B00020015091210160912201709123014F5F30
:1005C0005F4F6F4F7F4F4093200150932101609305
:1005D0002201709323018092400190924101A092E8
:1005E0004201B0924301ADCD40911C0150911D01DB
:1005F00060911E0170911F01443051056105710524
:1006000008F445C010921C0110921D0110921E01A9
:1006100010921F01409130015091310160913201DF
:10062000709133014F5F5F4F6F4F7F4F40933001A9
:100630005093310160933201709333014BB14325E4
:100640004BB948B1422548B9409130015091310130
:1006500060913201709133014E3051056105710591
:1006600008F46FCD109230011092310110923201D6
:100670001092330145E050E060E070E040934001AB
:100680005093410160934201709343015ACD4091D0
:100690001C0150911D0160911E0170911F014F5F5F
:1006A0005F4F6F4F7F4F40931C0150931D0160932C
:1006B0001E0170931F01C0924001D0924101E0924F
:1006C0004201F092430100933C0110933D012093BD
:1006D0003E0130933F0135CD4091180150911901F1
:1006E00060911A0170911B014A3051056105710535
:1006F00008F458C0109218011092190110921A01B2
:1007000010921B0140912C0150912D0160912E01FE
:1007100070912F014F5F5F4F6F4F7F4F40932C01C0
:1007200050932D0160932E0170932F01199B1DC0D2
:1007300040910401509105016091060170910701FB
:100740004B5F5F4F6F4F7F4F409304015093050104
:10075000609306017093070110922C0110922D01F5
:1007600010922E0110922F01ECCC4A3051056105F8
:10077000710508F4E6CC1BB818B810922C01109241
:100780002D0110922E0110922F0146E050E060E002
:1007900070E0409340015093410160934201709397
:1007A0004301CFCC409104015091050160910601B5
:1007B000709107014BB94091000150910101609186
:1007C00002017091030148B940911801509119013B
:1007D00060911A0170911B014F5F5F4F6F4F7F4F08
:1007E000409318015093190160931A0170931B01F3
:1007F00045E050E060E070E04093400150934101DB
:1008000060934201709343019CCC4091140150913C
:100810001501609116017091170144305105610571
:10082000710508F441C01092140110921501109244
:1008300016011092170140913001509131016091E1
:100840003201709133014F5F5F4F6F4F7F4F409385
:1008500030015093310160933201709333014BB1F9
:1008600043254BB948B1422548B9409130015091D8
:10087000310160913201709133014E3051056105B3
:10088000710508F45ECC1092300110923101109283
:100890003201109233014092400150924101609226
:1008A0004201709243014DCC4091140150911501C9
:1008B00060911601709117014F5F5F4F6F4F7F4F2F
:1008C0004093140150931501609316017093170122
:1008D00046E050E060E070E04093400150934101F9
:1008E00060934201709343012CCC199B1DC0109260
:1008F00010011092110110921201109213014FEF8A
:1009000050E060E070E040934001509341016093FB
:1009100042017093430110923C0110923D011092EC
:100920003E0110923F010DCC1BB818B84092400117
:1009300050924101609242017092430102CC18B87A
:100940001BB8FFCB1F920F920FB60F9211248F93FB
:100950009F93AF93BF9380910C0190910D01A09153
:100960000E01B0910F010196A11DB11D80930C01E4
:1009700090930D01A0930E01B0930F01BF91AF9121
:100980009F918F910F900FBE0F901F901895EE0FB3
:0E099000FF1F0590F491E02D0994F894FFCF1D
:0C099E0001000000010000000700000044
:00000001FF
